{
  "contractName": "Bank",
  "abi": [
    {
      "constant": true,
      "inputs": [],
      "name": "owner",
      "outputs": [
        {
          "name": "",
          "type": "address"
        }
      ],
      "payable": false,
      "stateMutability": "view",
      "type": "function"
    },
    {
      "constant": true,
      "inputs": [
        {
          "name": "",
          "type": "address"
        }
      ],
      "name": "investments",
      "outputs": [
        {
          "name": "deposited_at",
          "type": "uint256"
        },
        {
          "name": "amount",
          "type": "uint256"
        },
        {
          "name": "interest_rate",
          "type": "uint256"
        },
        {
          "name": "paid_at",
          "type": "uint256"
        },
        {
          "name": "paid_amount",
          "type": "uint256"
        }
      ],
      "payable": false,
      "stateMutability": "view",
      "type": "function"
    },
    {
      "constant": true,
      "inputs": [],
      "name": "interest_rate",
      "outputs": [
        {
          "name": "",
          "type": "uint256"
        }
      ],
      "payable": false,
      "stateMutability": "view",
      "type": "function"
    },
    {
      "constant": true,
      "inputs": [],
      "name": "creationTime",
      "outputs": [
        {
          "name": "",
          "type": "uint256"
        }
      ],
      "payable": false,
      "stateMutability": "view",
      "type": "function"
    },
    {
      "inputs": [
        {
          "name": "_interestRate",
          "type": "uint256"
        }
      ],
      "payable": false,
      "stateMutability": "nonpayable",
      "type": "constructor"
    },
    {
      "payable": true,
      "stateMutability": "payable",
      "type": "fallback"
    },
    {
      "anonymous": false,
      "inputs": [
        {
          "indexed": true,
          "name": "_investor",
          "type": "address"
        },
        {
          "indexed": false,
          "name": "_value",
          "type": "uint256"
        }
      ],
      "name": "Deposit",
      "type": "event"
    },
    {
      "anonymous": false,
      "inputs": [
        {
          "indexed": true,
          "name": "_investor",
          "type": "address"
        },
        {
          "indexed": false,
          "name": "_deposited_amount",
          "type": "uint256"
        },
        {
          "indexed": false,
          "name": "_deposited_at",
          "type": "uint256"
        },
        {
          "indexed": false,
          "name": "_paid_amount",
          "type": "uint256"
        }
      ],
      "name": "Withdraw",
      "type": "event"
    },
    {
      "constant": false,
      "inputs": [
        {
          "name": "_investor",
          "type": "address"
        }
      ],
      "name": "withdraw",
      "outputs": [
        {
          "name": "",
          "type": "bool"
        }
      ],
      "payable": false,
      "stateMutability": "nonpayable",
      "type": "function"
    },
    {
      "constant": true,
      "inputs": [
        {
          "name": "_investor",
          "type": "address"
        }
      ],
      "name": "amountOwed",
      "outputs": [
        {
          "name": "",
          "type": "uint256"
        }
      ],
      "payable": false,
      "stateMutability": "view",
      "type": "function"
    },
    {
      "constant": true,
      "inputs": [
        {
          "name": "_investor",
          "type": "address"
        }
      ],
      "name": "getInvestment",
      "outputs": [
        {
          "name": "",
          "type": "uint256"
        },
        {
          "name": "",
          "type": "uint256"
        },
        {
          "name": "",
          "type": "uint256"
        },
        {
          "name": "",
          "type": "uint256"
        },
        {
          "name": "",
          "type": "uint256"
        }
      ],
      "payable": false,
      "stateMutability": "view",
      "type": "function"
    },
    {
      "constant": false,
      "inputs": [
        {
          "name": "_newInterestRate",
          "type": "uint256"
        }
      ],
      "name": "setInterestRate",
      "outputs": [
        {
          "name": "",
          "type": "bool"
        }
      ],
      "payable": false,
      "stateMutability": "nonpayable",
      "type": "function"
    }
  ],
  "bytecode": "0x608060405233600260006101000a81548173ffffffffffffffffffffffffffffffffffffffff021916908373ffffffffffffffffffffffffffffffffffffffff1602179055504260035534801561005557600080fd5b50604051602080610bf5833981018060405281019080805190602001909291905050508060018190555050610b668061008f6000396000f30060806040526004361061008e576000357c0100000000000000000000000000000000000000000000000000000000900463ffffffff168063146b58df1461014057806351cff8d9146101b35780635f84f3021461020e5780638da5cb5b1461025357806396b98862146102aa578063cbb3d8081461031d578063d8270dce14610348578063e5cf229714610373575b600260009054906101000a900473ffffffffffffffffffffffffffffffffffffffff1673ffffffffffffffffffffffffffffffffffffffff163373ffffffffffffffffffffffffffffffffffffffff1614151561013e576100ef33346103ca565b3373ffffffffffffffffffffffffffffffffffffffff167fe1fffcc4923d04b559f4d29a8bfc6cda04eb5b0d3c460751c2402c5c5cc9109c346040518082815260200191505060405180910390a25b005b34801561014c57600080fd5b50610181600480360381019080803573ffffffffffffffffffffffffffffffffffffffff16906020019092919050505061048e565b604051808681526020018581526020018481526020018381526020018281526020019550505050505060405180910390f35b3480156101bf57600080fd5b506101f4600480360381019080803573ffffffffffffffffffffffffffffffffffffffff169060200190929190505050610549565b604051808215151515815260200191505060405180910390f35b34801561021a57600080fd5b5061023960048036038101908080359060200190929190505050610733565b604051808215151515815260200191505060405180910390f35b34801561025f57600080fd5b506102686107a1565b604051808273ffffffffffffffffffffffffffffffffffffffff1673ffffffffffffffffffffffffffffffffffffffff16815260200191505060405180910390f35b3480156102b657600080fd5b506102eb600480360381019080803573ffffffffffffffffffffffffffffffffffffffff1690602001909291905050506107c7565b604051808681526020018581526020018481526020018381526020018281526020019550505050505060405180910390f35b34801561032957600080fd5b506103326107fd565b6040518082815260200191505060405180910390f35b34801561035457600080fd5b5061035d610803565b6040518082815260200191505060405180910390f35b34801561037f57600080fd5b506103b4600480360381019080803573ffffffffffffffffffffffffffffffffffffffff169060200190929190505050610809565b6040518082815260200191505060405180910390f35b6000806103d5610af0565b6103de85610809565b925083915060a060405190810160405280428152602001848401815260200160015481526020016000815260200160008152509050806000808773ffffffffffffffffffffffffffffffffffffffff1673ffffffffffffffffffffffffffffffffffffffff16815260200190815260200160002060008201518160000155602082015181600101556040820151816002015560608201518160030155608082015181600401559050505050505050565b600080600080600061049e610af0565b6000808873ffffffffffffffffffffffffffffffffffffffff1673ffffffffffffffffffffffffffffffffffffffff16815260200190815260200160002060a0604051908101604052908160008201548152602001600182015481526020016002820154815260200160038201548152602001600482015481525050905080602001518160400151826000015183606001518460800151955095509550955095505091939590929450565b6000610553610af0565b6000808473ffffffffffffffffffffffffffffffffffffffff1673ffffffffffffffffffffffffffffffffffffffff16815260200190815260200160002060a06040519081016040529081600082015481526020016001820154815260200160028201548152602001600382015481526020016004820154815250509050600081606001511415156105e457600080fd5b428160600181815250506105f783610809565b816080018181525050806000808573ffffffffffffffffffffffffffffffffffffffff1673ffffffffffffffffffffffffffffffffffffffff16815260200190815260200160002060008201518160000155602082015181600101556040820151816002015560608201518160030155608082015181600401559050508273ffffffffffffffffffffffffffffffffffffffff166108fc82608001519081150290604051600060405180830381858888f193505050501580156106be573d6000803e3d6000fd5b508273ffffffffffffffffffffffffffffffffffffffff167f02f25270a4d87bea75db541cdfe559334a275b4a233520ed6c0a2429667cca9482602001518360000151846080015160405180848152602001838152602001828152602001935050505060405180910390a26001915050919050565b6000600260009054906101000a900473ffffffffffffffffffffffffffffffffffffffff1673ffffffffffffffffffffffffffffffffffffffff163373ffffffffffffffffffffffffffffffffffffffff1614151561079157600080fd5b8160018190555060019050919050565b600260009054906101000a900473ffffffffffffffffffffffffffffffffffffffff1681565b60006020528060005260406000206000915090508060000154908060010154908060020154908060030154908060040154905085565b60015481565b60035481565b6000610813610af0565b61081b610b20565b610823610b20565b61082b610b20565b6000610835610b20565b60008060008a73ffffffffffffffffffffffffffffffffffffffff1673ffffffffffffffffffffffffffffffffffffffff16815260200190815260200160002060a060405190810160405290816000820154815260200160018201548152602001600282015481526020016003820154815260200160048201548152505096506000876020015114806108cd57506000876060015114155b156108db5760009750610ae4565b6040805190810160405280606464174876e8008a60400151028115156108fd57fe5b0581526020017ffffffffffffffffffffffffffffffffffffffffffffffffffffffffffffffff581525095506040805190810160405280617b3081526020016003815250945060408051908101604052808660000151886000015181151561096157fe5b05815260200186602001518860200151038152509350655af3107a4000846000015101846000018181525050866000015142039250600083101515156109a657600080fd5b60408051908101604052808860200151815260200160008152509150600190505b8281111515610a6857604080519081016040528085600001518460000151028152602001856020015184602001510181525091505b7fffffffffffffffffffffffffffffffffffffffffffffffffffffffffffffffdd82602001511215610a5b576040805190810160405280600a8460000151811515610a4357fe5b058152602001600184602001510181525091506109fc565b80806001019150506109c7565b5b60008260200151141515610adc57600082602001511315610aab57600a8260000151028260000181815250506001826020015103826020018181525050610ad7565b600a8260000151811515610abb57fe5b0582600001818152505060018260200151018260200181815250505b610a69565b816000015197505b50505050505050919050565b60a06040519081016040528060008152602001600081526020016000815260200160008152602001600081525090565b6040805190810160405280600081526020016000815250905600a165627a7a7230582058b76abcd588215dffcd0a8cf1d3492446d5fb27a9eff21765541c88e30302fb0029",
  "source": "pragma solidity ^0.4.24;\n\ncontract Bank {\n\n    struct Investment {\n        uint deposited_at;\n        uint amount;\n        uint interest_rate;\n        uint paid_at;\n        uint paid_amount;\n    }\n\n    struct Scientific {\n      int base;\n      int exp;\n    }\n\n    event Deposit(\n        address indexed _investor,\n        uint _value\n    );\n\n    event Withdraw(\n      address indexed _investor,\n      uint _deposited_amount,\n      uint _deposited_at,\n      uint _paid_amount\n    );\n    // Investment[] public investments;\n\n    mapping (address => Investment) public investments;\n    uint public interest_rate;\n    address public owner = msg.sender;\n    uint public creationTime = now;\n\n    constructor(uint _interestRate) public {\n        interest_rate = _interestRate;\n    }\n\n    function withdraw(address _investor) public returns (bool) {\n      Investment memory investment = investments[_investor];\n      require(investment.paid_at == 0);\n      investment.paid_at = now;\n      investment.paid_amount = amountOwed(_investor);\n      investments[_investor] = investment;\n\n      _investor.transfer(investment.paid_amount);\n      emit Withdraw(_investor, investment.amount, investment.deposited_at, investment.paid_amount);\n      return true;\n    }\n\n    function amountOwed(address _investor) public view returns (uint) {\n      Investment memory investment = investments[_investor];\n\n      if (investment.amount == 0 || investment.paid_at != 0) {\n        return 0;\n      }\n      Scientific memory r = Scientific(int(investment.interest_rate)*1e11/100, -11); //interest rate\n      Scientific memory n = Scientific(31536, 3); // seconds in a year\n\n      Scientific memory periodic_rate = Scientific(r.base/n.base, r.exp - n.exp);\n      periodic_rate.base = periodic_rate.base + 1.0e14; //we know the exp must be at -14 so we add Decimal(1e14, -14)\n\n      uint num_periods = now - investment.deposited_at;\n      require(num_periods >= 0);\n\n      Scientific memory result = Scientific(int(investment.amount), 0);\n\n      for (uint i=1; i<=num_periods; i++) {\n        result = Scientific(result.base*periodic_rate.base, result.exp + periodic_rate.exp);\n        while (result.exp < -35) {\n          result = Scientific(result.base/10, result.exp + 1);\n        }\n      }\n\n      while(result.exp != 0) {\n        if(result.exp > 0) {\n          result.base = result.base*10;\n          result.exp = result.exp - 1;\n        } else {\n          result.base = result.base/10;\n          result.exp = result.exp + 1;\n        }\n      }\n      return uint(result.base);\n    }\n\n    function getInvestment(address _investor) public view returns (uint, uint, uint, uint, uint) {\n      Investment memory investment = investments[_investor];\n      return (\n        investment.amount,\n        investment.interest_rate,\n        investment.deposited_at,\n        investment.paid_at,\n        investment.paid_amount\n      );\n    }\n\n    function setInterestRate(uint _newInterestRate) public returns (bool) {\n      require(msg.sender == owner);\n      interest_rate = _newInterestRate;\n      return true;\n    }\n\n    function handlePayment(address sender, uint value) private {\n      uint old_amount = amountOwed(sender);\n      uint new_amount = value;\n      Investment memory investment = Investment(\n        now,\n        new_amount + old_amount,\n        interest_rate,\n        0,\n        0\n      );\n      investments[sender] = investment;\n    }\n\n    function() public payable {\n      if (msg.sender != owner) {\n        handlePayment(msg.sender, msg.value);\n        emit Deposit(msg.sender, msg.value);\n      }\n    }\n\n  }",
  "sourcePath": "/Users/herold/Desktop/learn/solidity/project1/truffle/contracts/Bank.sol",
  "compiler": {
    "name": "solc",
    "version": "0.4.24+commit.e67f0147.Emscripten.clang"
  },
  "schemaVersion": "2.0.1",
  "updatedAt": "2018-11-02T03:04:33.314Z"
}