{
  "contractName": "Bank",
  "abi": [
    {
      "constant": true,
      "inputs": [],
      "name": "owner",
      "outputs": [
        {
          "name": "",
          "type": "address"
        }
      ],
      "payable": false,
      "stateMutability": "view",
      "type": "function"
    },
    {
      "constant": true,
      "inputs": [
        {
          "name": "",
          "type": "address"
        }
      ],
      "name": "investments",
      "outputs": [
        {
          "name": "deposited_at",
          "type": "uint256"
        },
        {
          "name": "amount",
          "type": "int256"
        },
        {
          "name": "interest_rate",
          "type": "int256"
        },
        {
          "name": "paid_at",
          "type": "uint256"
        },
        {
          "name": "paid_amount",
          "type": "int256"
        }
      ],
      "payable": false,
      "stateMutability": "view",
      "type": "function"
    },
    {
      "constant": true,
      "inputs": [],
      "name": "interest_rate",
      "outputs": [
        {
          "name": "",
          "type": "int256"
        }
      ],
      "payable": false,
      "stateMutability": "view",
      "type": "function"
    },
    {
      "constant": true,
      "inputs": [],
      "name": "creationTime",
      "outputs": [
        {
          "name": "",
          "type": "uint256"
        }
      ],
      "payable": false,
      "stateMutability": "view",
      "type": "function"
    },
    {
      "inputs": [
        {
          "name": "_interestRate",
          "type": "int256"
        }
      ],
      "payable": false,
      "stateMutability": "nonpayable",
      "type": "constructor"
    },
    {
      "payable": true,
      "stateMutability": "payable",
      "type": "fallback"
    },
    {
      "constant": false,
      "inputs": [
        {
          "name": "_investor",
          "type": "address"
        },
        {
          "name": "current_timestamp",
          "type": "uint256"
        }
      ],
      "name": "withdraw",
      "outputs": [
        {
          "name": "",
          "type": "bool"
        }
      ],
      "payable": false,
      "stateMutability": "nonpayable",
      "type": "function"
    },
    {
      "constant": true,
      "inputs": [
        {
          "name": "_investor",
          "type": "address"
        }
      ],
      "name": "amountOwed",
      "outputs": [
        {
          "name": "",
          "type": "int256"
        }
      ],
      "payable": false,
      "stateMutability": "view",
      "type": "function"
    },
    {
      "constant": true,
      "inputs": [
        {
          "name": "_investor",
          "type": "address"
        }
      ],
      "name": "getInvestment",
      "outputs": [
        {
          "name": "",
          "type": "int256"
        },
        {
          "name": "",
          "type": "int256"
        },
        {
          "name": "",
          "type": "uint256"
        },
        {
          "name": "",
          "type": "uint256"
        },
        {
          "name": "",
          "type": "int256"
        }
      ],
      "payable": false,
      "stateMutability": "view",
      "type": "function"
    },
    {
      "constant": false,
      "inputs": [
        {
          "name": "_newInterestRate",
          "type": "int256"
        }
      ],
      "name": "setInterestRate",
      "outputs": [
        {
          "name": "",
          "type": "bool"
        }
      ],
      "payable": false,
      "stateMutability": "nonpayable",
      "type": "function"
    }
  ],
  "bytecode": "0x608060405233600260006101000a81548173ffffffffffffffffffffffffffffffffffffffff021916908373ffffffffffffffffffffffffffffffffffffffff1602179055504260035534801561005557600080fd5b50604051602080610b0f833981018060405281019080805190602001909291905050508060018190555050610a808061008f6000396000f30060806040526004361061008e576000357c0100000000000000000000000000000000000000000000000000000000900463ffffffff168063146b58df146101cb5780638da5cb5b1461023e57806396b9886214610295578063a7d41ea914610308578063cbb3d8081461034d578063d8270dce14610378578063e5cf2297146103a3578063f3fef3a3146103fa575b610096610a0a565b6000803373ffffffffffffffffffffffffffffffffffffffff1673ffffffffffffffffffffffffffffffffffffffff16815260200190815260200160002060a06040519081016040529081600082015481526020016001820154815260200160028201548152602001600382015481526020016004820154815250509050428160000181815250506101273361045f565b340181602001818152505060015481604001818152505060008160600181815250506000816080018181525050806000803373ffffffffffffffffffffffffffffffffffffffff1673ffffffffffffffffffffffffffffffffffffffff168152602001908152602001600020600082015181600001556020820151816001015560408201518160020155606082015181600301556080820151816004015590505050005b3480156101d757600080fd5b5061020c600480360381019080803573ffffffffffffffffffffffffffffffffffffffff169060200190929190505050610743565b604051808681526020018581526020018481526020018381526020018281526020019550505050505060405180910390f35b34801561024a57600080fd5b506102536107fe565b604051808273ffffffffffffffffffffffffffffffffffffffff1673ffffffffffffffffffffffffffffffffffffffff16815260200191505060405180910390f35b3480156102a157600080fd5b506102d6600480360381019080803573ffffffffffffffffffffffffffffffffffffffff169060200190929190505050610824565b604051808681526020018581526020018481526020018381526020018281526020019550505050505060405180910390f35b34801561031457600080fd5b506103336004803603810190808035906020019092919050505061085a565b604051808215151515815260200191505060405180910390f35b34801561035957600080fd5b506103626108c8565b6040518082815260200191505060405180910390f35b34801561038457600080fd5b5061038d6108ce565b6040518082815260200191505060405180910390f35b3480156103af57600080fd5b506103e4600480360381019080803573ffffffffffffffffffffffffffffffffffffffff16906020019092919050505061045f565b6040518082815260200191505060405180910390f35b34801561040657600080fd5b50610445600480360381019080803573ffffffffffffffffffffffffffffffffffffffff169060200190929190803590602001909291905050506108d4565b604051808215151515815260200191505060405180910390f35b6000610469610a0a565b610471610a3a565b610479610a3a565b610481610a3a565b600061048b610a3a565b6000806000808b73ffffffffffffffffffffffffffffffffffffffff1673ffffffffffffffffffffffffffffffffffffffff16815260200190815260200160002060a06040519081016040529081600082015481526020016001820154815260200160028201548152602001600382015481526020016004820154815250509750600088606001511415156105235760009850610736565b6040805190810160405280606464174876e8008b604001510281151561054557fe5b0581526020017ffffffffffffffffffffffffffffffffffffffffffffffffffffffffffffffff581525096506040805190810160405280617b308152602001600381525095506040805190810160405280876000015189600001518115156105a957fe5b05815260200187602001518960200151038152509450655af3107a4000856000015101856000018181525050876000015142039350600084101515156105ee57600080fd5b6040805190810160405280896020015181526020016000815250925060009150600190505b83811115156106ba57604080519081016040528086600001518560000151028152602001866020015185602001510181525092505b7fffffffffffffffffffffffffffffffffffffffffffffffffffffffffffffffdd836020015112156106ad576001820191506040805190810160405280600a856000015181151561069557fe5b05815260200160018560200151018152509250610648565b8080600101915050610613565b5b6000836020015114151561072e576000836020015113156106fd57600a8360000151028360000181815250506001836020015103836020018181525050610729565b600a836000015181151561070d57fe5b0583600001818152505060018360200151018360200181815250505b6106bb565b826000015198505b5050505050505050919050565b6000806000806000610753610a0a565b6000808873ffffffffffffffffffffffffffffffffffffffff1673ffffffffffffffffffffffffffffffffffffffff16815260200190815260200160002060a0604051908101604052908160008201548152602001600182015481526020016002820154815260200160038201548152602001600482015481525050905080602001518160400151826000015183606001518460800151955095509550955095505091939590929450565b600260009054906101000a900473ffffffffffffffffffffffffffffffffffffffff1681565b60006020528060005260406000206000915090508060000154908060010154908060020154908060030154908060040154905085565b6000600260009054906101000a900473ffffffffffffffffffffffffffffffffffffffff1673ffffffffffffffffffffffffffffffffffffffff163373ffffffffffffffffffffffffffffffffffffffff161415156108b857600080fd5b8160018190555060019050919050565b60015481565b60035481565b60006108de610a0a565b6000808573ffffffffffffffffffffffffffffffffffffffff1673ffffffffffffffffffffffffffffffffffffffff16815260200190815260200160002060a060405190810160405290816000820154815260200160018201548152602001600282015481526020016003820154815260200160048201548152505090506000816060015114151561096f57600080fd5b828160600181815250506109828461045f565b816080018181525050806000808673ffffffffffffffffffffffffffffffffffffffff1673ffffffffffffffffffffffffffffffffffffffff1681526020019081526020016000206000820151816000015560208201518160010155604082015181600201556060820151816003015560808201518160040155905050600191505092915050565b60a06040519081016040528060008152602001600081526020016000815260200160008152602001600081525090565b6040805190810160405280600081526020016000815250905600a165627a7a7230582035e6ea2901ebf9c399edb6683b9ae704df856ffb2c5f49a89881edd5831bffe60029",
  "source": "/*\nImplements EIP20 token standard: https://github.com/ethereum/EIPs/blob/master/EIPS/eip-20.md\n.*/\n\npragma solidity ^0.4.24;\n\ncontract Bank {\n\n    struct Investment {\n        uint deposited_at;\n        int amount;\n        int interest_rate;\n        uint paid_at;\n        int paid_amount;\n    }\n\n    struct Scientific {\n      int base;\n      int exp;\n    }\n\n    // Investment[] public investments;\n\n    mapping (address => Investment) public investments;\n    int public interest_rate;\n    address public owner = msg.sender;\n    uint public creationTime = now;\n\n    constructor(int _interestRate) public {\n        interest_rate = _interestRate;\n    }\n\n    function withdraw(address _investor, uint current_timestamp) public returns (bool) {\n        // TODO investor should pay the txn fees, we should record those fees\n        Investment memory investment = investments[_investor];\n        require(investment.paid_at == 0);\n        investment.paid_at = current_timestamp;\n        investment.paid_amount = amountOwed(_investor);\n        investments[_investor] = investment;\n        return true;\n    }\n\n    function amountOwed(address _investor) public view returns (int) {\n      Investment memory investment = investments[_investor];\n\n      if (investment.paid_at != 0) {\n        return 0;\n      }\n      Scientific memory r = Scientific(investment.interest_rate*1e11/100, -11); //interest rate\n      Scientific memory n = Scientific(31536, 3); // seconds in a year\n\n      Scientific memory periodic_rate = Scientific(r.base/n.base, r.exp - n.exp);\n      periodic_rate.base = periodic_rate.base + 1.0e14; //we know the exp must be at -14 so we add Decimal(1e14, -14)\n\n      uint num_periods = now - investment.deposited_at;\n      require(num_periods >= 0);\n\n      Scientific memory result = Scientific(investment.amount, 0);\n\n      int corrects = 0;\n\n      for (uint i=1; i<=num_periods; i++) {\n        result = Scientific(result.base*periodic_rate.base, result.exp + periodic_rate.exp);\n        while (result.exp < -35) {\n          corrects += 1;\n          result = Scientific(result.base/10, result.exp + 1);\n        }\n      }\n\n      while(result.exp != 0) {\n        if(result.exp > 0) {\n          result.base = result.base*10;\n          result.exp = result.exp - 1;\n        } else {\n          result.base = result.base/10;\n          result.exp = result.exp + 1;\n        }\n      }\n      return result.base;\n    }\n\n    function getInvestment(address _investor) public view returns (int, int, uint, uint, int) {\n      Investment memory investment = investments[_investor];\n      return (\n        investment.amount,\n        investment.interest_rate,\n        investment.deposited_at,\n        investment.paid_at,\n        investment.paid_amount\n      );\n    }\n\n    function setInterestRate(int _newInterestRate) public returns (bool) {\n      require(msg.sender == owner);\n      interest_rate = _newInterestRate;\n      return true;\n    }\n\n    function() public payable {\n      Investment memory investment = investments[msg.sender];\n      investment.deposited_at = now;\n      investment.amount = int(msg.value) + amountOwed(msg.sender);\n      investment.interest_rate = interest_rate;\n      investment.paid_at = 0;\n      investment.paid_amount = 0;\n      investments[msg.sender] = investment;\n    }\n\n}",
  "sourcePath": "/Users/herold/Desktop/learn/solidity/project1/truffle/contracts/Bank.sol",
  "compiler": {
    "name": "solc",
    "version": "0.4.24+commit.e67f0147.Emscripten.clang"
  },
  "schemaVersion": "2.0.1",
  "updatedAt": "2018-11-01T03:44:05.482Z"
}