{
  "contractName": "Bank",
  "abi": [
    {
      "constant": true,
      "inputs": [
        {
          "name": "",
          "type": "address"
        }
      ],
      "name": "balances",
      "outputs": [
        {
          "name": "",
          "type": "int256"
        }
      ],
      "payable": false,
      "stateMutability": "view",
      "type": "function"
    },
    {
      "constant": true,
      "inputs": [],
      "name": "symbol",
      "outputs": [
        {
          "name": "",
          "type": "string"
        }
      ],
      "payable": false,
      "stateMutability": "view",
      "type": "function"
    },
    {
      "constant": true,
      "inputs": [
        {
          "name": "",
          "type": "address"
        }
      ],
      "name": "investments",
      "outputs": [
        {
          "name": "investor",
          "type": "address"
        },
        {
          "name": "deposited_at",
          "type": "uint256"
        },
        {
          "name": "amount",
          "type": "int256"
        },
        {
          "name": "interest_rate",
          "type": "int256"
        },
        {
          "name": "paid_at",
          "type": "uint256"
        }
      ],
      "payable": false,
      "stateMutability": "view",
      "type": "function"
    },
    {
      "inputs": [
        {
          "name": "_tokenSymbol",
          "type": "string"
        }
      ],
      "payable": false,
      "stateMutability": "nonpayable",
      "type": "constructor"
    },
    {
      "constant": false,
      "inputs": [
        {
          "name": "_investor",
          "type": "address"
        },
        {
          "name": "current_timestamp",
          "type": "uint256"
        }
      ],
      "name": "pay",
      "outputs": [
        {
          "name": "",
          "type": "bool"
        }
      ],
      "payable": false,
      "stateMutability": "nonpayable",
      "type": "function"
    },
    {
      "constant": true,
      "inputs": [
        {
          "name": "_investor",
          "type": "address"
        },
        {
          "name": "current_timestamp",
          "type": "uint256"
        }
      ],
      "name": "amountOwed",
      "outputs": [
        {
          "name": "",
          "type": "int256"
        },
        {
          "name": "",
          "type": "int256"
        }
      ],
      "payable": false,
      "stateMutability": "view",
      "type": "function"
    },
    {
      "constant": false,
      "inputs": [
        {
          "name": "_investor",
          "type": "address"
        },
        {
          "name": "_amount",
          "type": "int256"
        },
        {
          "name": "_interest_rate",
          "type": "int256"
        }
      ],
      "name": "invest",
      "outputs": [
        {
          "name": "",
          "type": "bool"
        }
      ],
      "payable": false,
      "stateMutability": "nonpayable",
      "type": "function"
    },
    {
      "constant": true,
      "inputs": [
        {
          "name": "_investor",
          "type": "address"
        }
      ],
      "name": "balanceOf",
      "outputs": [
        {
          "name": "balance",
          "type": "int256"
        }
      ],
      "payable": false,
      "stateMutability": "view",
      "type": "function"
    },
    {
      "constant": true,
      "inputs": [
        {
          "name": "_investor",
          "type": "address"
        }
      ],
      "name": "getInvestmentAmount",
      "outputs": [
        {
          "name": "",
          "type": "int256"
        }
      ],
      "payable": false,
      "stateMutability": "view",
      "type": "function"
    },
    {
      "constant": true,
      "inputs": [
        {
          "name": "_investor",
          "type": "address"
        }
      ],
      "name": "getInvestmentDepositedAt",
      "outputs": [
        {
          "name": "",
          "type": "uint256"
        }
      ],
      "payable": false,
      "stateMutability": "view",
      "type": "function"
    },
    {
      "constant": true,
      "inputs": [
        {
          "name": "_investor",
          "type": "address"
        }
      ],
      "name": "getInvestmentPaidAt",
      "outputs": [
        {
          "name": "",
          "type": "uint256"
        }
      ],
      "payable": false,
      "stateMutability": "view",
      "type": "function"
    },
    {
      "constant": true,
      "inputs": [
        {
          "name": "_investor",
          "type": "address"
        }
      ],
      "name": "getInvestmentInterestRate",
      "outputs": [
        {
          "name": "",
          "type": "int256"
        }
      ],
      "payable": false,
      "stateMutability": "view",
      "type": "function"
    }
  ],
  "bytecode": "0x608060405234801561001057600080fd5b50604051620011c7380380620011c783398101806040528101908080518201929190505050806002908051906020019061004b929190610052565b50506100f7565b828054600181600116156101000203166002900490600052602060002090601f016020900481019282601f1061009357805160ff19168380011785556100c1565b828001600101855582156100c1579182015b828111156100c05782518255916020019190600101906100a5565b5b5090506100ce91906100d2565b5090565b6100f491905b808211156100f05760008160009055506001016100d8565b5090565b90565b6110c080620001076000396000f3006080604052600436106100af576000357c0100000000000000000000000000000000000000000000000000000000900463ffffffff168063188d1a19146100b457806327e235e3146101235780632d6fa4b21461017a57806370a08231146101d157806395d89b411461022857806396b98862146102b85780639e2eb1fe14610357578063c4076876146103ae578063cb91299e14610413578063dd38ac581461046a578063f3855a30146104d2575b600080fd5b3480156100c057600080fd5b50610109600480360381019080803573ffffffffffffffffffffffffffffffffffffffff1690602001909291908035906020019092919080359060200190929190505050610529565b604051808215151515815260200191505060405180910390f35b34801561012f57600080fd5b50610164600480360381019080803573ffffffffffffffffffffffffffffffffffffffff169060200190929190505050610632565b6040518082815260200191505060405180910390f35b34801561018657600080fd5b506101bb600480360381019080803573ffffffffffffffffffffffffffffffffffffffff16906020019092919050505061064a565b6040518082815260200191505060405180910390f35b3480156101dd57600080fd5b50610212600480360381019080803573ffffffffffffffffffffffffffffffffffffffff16906020019092919050505061072c565b6040518082815260200191505060405180910390f35b34801561023457600080fd5b5061023d610774565b6040518080602001828103825283818151815260200191508051906020019080838360005b8381101561027d578082015181840152602081019050610262565b50505050905090810190601f1680156102aa5780820380516001836020036101000a031916815260200191505b509250505060405180910390f35b3480156102c457600080fd5b506102f9600480360381019080803573ffffffffffffffffffffffffffffffffffffffff169060200190929190505050610812565b604051808673ffffffffffffffffffffffffffffffffffffffff1673ffffffffffffffffffffffffffffffffffffffff1681526020018581526020018481526020018381526020018281526020019550505050505060405180910390f35b34801561036357600080fd5b50610398600480360381019080803573ffffffffffffffffffffffffffffffffffffffff169060200190929190505050610868565b6040518082815260200191505060405180910390f35b3480156103ba57600080fd5b506103f9600480360381019080803573ffffffffffffffffffffffffffffffffffffffff1690602001909291908035906020019092919050505061094a565b604051808215151515815260200191505060405180910390f35b34801561041f57600080fd5b50610454600480360381019080803573ffffffffffffffffffffffffffffffffffffffff169060200190929190505050610b51565b6040518082815260200191505060405180910390f35b34801561047657600080fd5b506104b5600480360381019080803573ffffffffffffffffffffffffffffffffffffffff16906020019092919080359060200190929190505050610c33565b604051808381526020018281526020019250505060405180910390f35b3480156104de57600080fd5b50610513600480360381019080803573ffffffffffffffffffffffffffffffffffffffff169060200190929190505050610f52565b6040518082815260200191505060405180910390f35b6000610533611034565b60a0604051908101604052808673ffffffffffffffffffffffffffffffffffffffff1681526020014281526020018581526020018481526020016000815250905080600160008773ffffffffffffffffffffffffffffffffffffffff1673ffffffffffffffffffffffffffffffffffffffff16815260200190815260200160002060008201518160000160006101000a81548173ffffffffffffffffffffffffffffffffffffffff021916908373ffffffffffffffffffffffffffffffffffffffff1602179055506020820151816001015560408201518160020155606082015181600301556080820151816004015590505060019150509392505050565b60006020528060005260406000206000915090505481565b6000610654611034565b600160008473ffffffffffffffffffffffffffffffffffffffff1673ffffffffffffffffffffffffffffffffffffffff16815260200190815260200160002060a060405190810160405290816000820160009054906101000a900473ffffffffffffffffffffffffffffffffffffffff1673ffffffffffffffffffffffffffffffffffffffff1673ffffffffffffffffffffffffffffffffffffffff16815260200160018201548152602001600282015481526020016003820154815260200160048201548152505090508060400151915050919050565b60008060008373ffffffffffffffffffffffffffffffffffffffff1673ffffffffffffffffffffffffffffffffffffffff168152602001908152602001600020549050919050565b60028054600181600116156101000203166002900480601f01602080910402602001604051908101604052809291908181526020018280546001816001161561010002031660029004801561080a5780601f106107df5761010080835404028352916020019161080a565b820191906000526020600020905b8154815290600101906020018083116107ed57829003601f168201915b505050505081565b60016020528060005260406000206000915090508060000160009054906101000a900473ffffffffffffffffffffffffffffffffffffffff16908060010154908060020154908060030154908060040154905085565b6000610872611034565b600160008473ffffffffffffffffffffffffffffffffffffffff1673ffffffffffffffffffffffffffffffffffffffff16815260200190815260200160002060a060405190810160405290816000820160009054906101000a900473ffffffffffffffffffffffffffffffffffffffff1673ffffffffffffffffffffffffffffffffffffffff1673ffffffffffffffffffffffffffffffffffffffff16815260200160018201548152602001600282015481526020016003820154815260200160048201548152505090508060600151915050919050565b6000610954611034565b600160008573ffffffffffffffffffffffffffffffffffffffff1673ffffffffffffffffffffffffffffffffffffffff16815260200190815260200160002060a060405190810160405290816000820160009054906101000a900473ffffffffffffffffffffffffffffffffffffffff1673ffffffffffffffffffffffffffffffffffffffff1673ffffffffffffffffffffffffffffffffffffffff168152602001600182015481526020016002820154815260200160038201548152602001600482015481525050905060008160800151141515610a3257600080fd5b6305f5e100600080836000015173ffffffffffffffffffffffffffffffffffffffff1673ffffffffffffffffffffffffffffffffffffffff16815260200190815260200160002060008282540192505081905550828160800181815250508060016000836000015173ffffffffffffffffffffffffffffffffffffffff1673ffffffffffffffffffffffffffffffffffffffff16815260200190815260200160002060008201518160000160006101000a81548173ffffffffffffffffffffffffffffffffffffffff021916908373ffffffffffffffffffffffffffffffffffffffff16021790555060208201518160010155604082015181600201556060820151816003015560808201518160040155905050600191505092915050565b6000610b5b611034565b600160008473ffffffffffffffffffffffffffffffffffffffff1673ffffffffffffffffffffffffffffffffffffffff16815260200190815260200160002060a060405190810160405290816000820160009054906101000a900473ffffffffffffffffffffffffffffffffffffffff1673ffffffffffffffffffffffffffffffffffffffff1673ffffffffffffffffffffffffffffffffffffffff16815260200160018201548152602001600282015481526020016003820154815260200160048201548152505090508060200151915050919050565b600080610c3e611034565b610c4661107a565b610c4e61107a565b610c5661107a565b6000610c6061107a565b600080600160008d73ffffffffffffffffffffffffffffffffffffffff1673ffffffffffffffffffffffffffffffffffffffff16815260200190815260200160002060a060405190810160405290816000820160009054906101000a900473ffffffffffffffffffffffffffffffffffffffff1673ffffffffffffffffffffffffffffffffffffffff1673ffffffffffffffffffffffffffffffffffffffff16815260200160018201548152602001600282015481526020016003820154815260200160048201548152505097506040805190810160405280606464174876e8008b6060015102811515610d5057fe5b0581526020017ffffffffffffffffffffffffffffffffffffffffffffffffffffffffffffffff581525096506040805190810160405280617b30815260200160038152509550604080519081016040528087600001518960000151811515610db457fe5b05815260200187602001518960200151038152509450655af3107a400085600001510185600001818152505087602001518b03935060008410151515610df957600080fd5b6040805190810160405280896040015181526020016000815250925060009150600190505b8381111515610ec557604080519081016040528086600001518560000151028152602001866020015185602001510181525092505b7fffffffffffffffffffffffffffffffffffffffffffffffffffffffffffffffdd83602001511215610eb8576001820191506040805190810160405280600a8560000151811515610ea057fe5b05815260200160018560200151018152509250610e53565b8080600101915050610e1e565b5b60008360200151141515610f3957600083602001511315610f0857600a8360000151028360000181815250506001836020015103836020018181525050610f34565b600a8360000151811515610f1857fe5b0583600001818152505060018360200151018360200181815250505b610ec6565b8260000151829950995050505050505050509250929050565b6000610f5c611034565b600160008473ffffffffffffffffffffffffffffffffffffffff1673ffffffffffffffffffffffffffffffffffffffff16815260200190815260200160002060a060405190810160405290816000820160009054906101000a900473ffffffffffffffffffffffffffffffffffffffff1673ffffffffffffffffffffffffffffffffffffffff1673ffffffffffffffffffffffffffffffffffffffff16815260200160018201548152602001600282015481526020016003820154815260200160048201548152505090508060800151915050919050565b60a060405190810160405280600073ffffffffffffffffffffffffffffffffffffffff168152602001600081526020016000815260200160008152602001600081525090565b6040805190810160405280600081526020016000815250905600a165627a7a723058208b7d84d95ddf67a9e0e54a7d87f9841897ec5f0d0dc0ed44196ecce4d1d056100029",
  "source": "/*\nImplements EIP20 token standard: https://github.com/ethereum/EIPs/blob/master/EIPS/eip-20.md\n.*/\n\npragma solidity ^0.4.24;\n\ncontract Bank {\n\n    struct Investment {\n        address investor;\n        uint deposited_at;\n        int amount;\n        int interest_rate;\n        uint paid_at;\n    }\n\n    struct Scientific {\n      int base;\n      int exp;\n    }\n\n    // Investment[] public investments;\n\n    mapping (address => int) public balances;\n    mapping (address => Investment) public investments;\n    string public symbol;\n\n    constructor(string _tokenSymbol) public {\n        symbol = _tokenSymbol;\n    }\n\n    function pay(address _investor, uint current_timestamp) public returns (bool) {\n        Investment memory investment = investments[_investor];\n        require(investment.paid_at == 0);\n        balances[investment.investor] += 100000000;//amountOwed(_investor, current_timestamp);\n        investment.paid_at = current_timestamp;\n        investments[investment.investor] = investment;\n        return true;\n    }\n\n    function amountOwed(address _investor, uint current_timestamp) public view returns (int, int) {\n      Investment memory investment = investments[_investor];\n      Scientific memory r = Scientific(investment.interest_rate*1e11/100, -11); //interest rate\n      Scientific memory n = Scientific(31536, 3); // seconds in a year\n\n      Scientific memory periodic_rate = Scientific(r.base/n.base, r.exp - n.exp);\n      periodic_rate.base = periodic_rate.base + 1.0e14; //we know the exp must be at -14 so we add Decimal(1e14, -14)\n\n      uint num_periods = current_timestamp - investment.deposited_at;\n      require(num_periods >= 0);\n\n      Scientific memory result = Scientific(investment.amount, 0);\n\n      int corrects = 0;\n\n      for (uint i=1; i<=num_periods; i++) {\n        result = Scientific(result.base*periodic_rate.base, result.exp + periodic_rate.exp);\n        while (result.exp < -35) {\n          corrects += 1;\n          result = Scientific(result.base/10, result.exp + 1);\n        }\n      }\n\n      while(result.exp != 0) {\n        if(result.exp > 0) {\n          result.base = result.base*10;\n          result.exp = result.exp - 1;\n        } else {\n          result.base = result.base/10;\n          result.exp = result.exp + 1;\n        }\n      }\n      return (result.base, corrects);\n    }\n\n    function invest(address _investor, int _amount, int _interest_rate) public returns (bool) {\n       Investment memory investment = Investment(\n         _investor,\n         block.timestamp,\n         _amount,\n         _interest_rate,\n         0\n       );\n       investments[_investor] = investment;\n       return true;\n    }\n\n    //views\n\n    function balanceOf(address _investor) public view returns (int balance) {\n        return balances[_investor];\n    }\n\n    function getInvestmentAmount(address _investor) public view returns (int) {\n      Investment memory investment = investments[_investor];\n      return investment.amount;\n    }\n\n    function getInvestmentDepositedAt(address _investor) public view returns (uint) {\n      Investment memory investment = investments[_investor];\n      return investment.deposited_at;\n    }\n\n    function getInvestmentPaidAt(address _investor) public view returns (uint) {\n      Investment memory investment = investments[_investor];\n      return investment.paid_at;\n    }\n\n    function getInvestmentInterestRate(address _investor) public view returns (int) {\n      Investment memory investment = investments[_investor];\n      return investment.interest_rate;\n    }\n\n}",
  "sourcePath": "/Users/herold/Desktop/learn/solidity/project1/truffle/contracts/Bank.sol",
  "compiler": {
    "name": "solc",
    "version": "0.4.24+commit.e67f0147.Emscripten.clang"
  },
  "schemaVersion": "2.0.1",
  "updatedAt": "2018-10-31T23:05:29.084Z"
}